:020000040800F2
:10000000A007002089010008EB1A0008DD1800088D
:10001000E91A0008E1030008731E00080000000050
:10002000000000000000000000000000AF1B0008FE
:100030001B04000800000000AD1B0008B11B0008F5
:10004000A3010008A3010008A3010008A301000800
:10005000A3010008A3010008A3010008A3010008F0
:10006000A3010008A3010008A3010008E50300089C
:10007000A3010008A3010008A3010008A3010008D0
:10008000A3010008A301000891020008A3010008D1
:10009000A3010008A3010008A3010008A3010008B0
:1000A000A3010008A3010008A3010008A3010008A0
:1000B000A3010008A3010008A3010008A301000890
:1000C000A3010008A3010008A3010008A301000880
:1000D000A3010008A3010008A3010008A301000870
:1000E000A3010008A3010008A301000800F002F822
:1000F00000F03AF80AA090E8000C82448344AAF188
:100100000107DA4501D100F02FF8AFF2090EBAE885
:100110000F0013F0010F18BFFB1A43F0010318473B
:100120003824000058240000103A24BF78C878C151
:10013000FAD8520724BF30C830C144BF04680C60ED
:10014000704700000023002400250026103A28BF35
:1001500078C1FBD8520728BF30C148BF0B60704739
:100160001FB51FBD10B510BD00F058F81146FFF7C0
:10017000F7FF01F0A3FE00F076F803B4FFF7F2FFFB
:1001800003BC00F07DF8000009488047094800479B
:10019000FEE7FEE7FEE7FEE7FEE7FEE7FEE7FEE737
:1001A000FEE7FEE704480549054A064B7047000094
:1001B0002D1C0008ED000008A0010020A007002071
:1001C000A0030020A00300204FF0000200B513465A
:1001D00094469646203922BFA0E80C50A0E80C5067
:1001E000B1F12001BFF4F7AF090728BFA0E80C5018
:1001F00048BF0CC05DF804EB890028BF40F8042B11
:1002000008BF704748BF20F8022B11F0804F18BF7D
:1002100000F8012B7047704770477047754600F033
:100220002BF8AE4605006946534620F00700854688
:1002300018B020B5FFF7B6FFBDE820404FF000062C
:100240004FF000074FF000084FF0000B21F00701BE
:10025000AC46ACE8C009ACE8C009ACE8C009ACE801
:10026000C0098D46704710B50446AFF300802046A4
:10027000BDE81040FFF781BF004870473C010020F7
:1002800001491820ABBEFEE72600020070470000BF
:10029000014800F06FB900003800002070B5044636
:1002A00000688168C943C90717D1816821F001013D
:1002B000816000F07FFD05460AE000BF00F07AFD96
:1002C000401B022804D920688068C043C00706D0BC
:1002D00020688068C043C007F0D0002070BDA06ACD
:1002E00040F01000A062E06A40F00100E0620120EE
:1002F00070BD10B50146406A826A12F0500F05D0F9
:10030000006A026BBDE8104008461047816A41F45C
:100310000071816201688968C1F3424107290CD1EB
:10032000017B51B9816A21F480718162816AC904BB
:1003300003D4816A41F00101816200F0F1F810BD3F
:1003400010B5406A816A41F040018162C16A41F0A2
:100350000401C16200F00DF910BD10B5406A00F053
:1003600007F910BDF8B500260446009600688168BC
:10037000C943C9072DD0816841F001018160164849
:1003800016490068B0FBF1F000E0401E0090002824
:10039000FBD100F00FFD054616E000BF00F00AFD9E
:1003A000401B022810D920688068C043C0070BD0CA
:1003B000A06A40F01000A062E06A40F00100E06234
:1003C00084F824600120F8BD20688068C043C0071D
:1003D000E4D10020F8BD00001800002040420F00CA
:1003E000FEE70000014800F0E5BA000068000020C8
:1003F00030B590F840500124AC40C56B6C60046887
:1004000063604368102B036803D099600068C26082
:1004100030BD9A600068C16030BD704772B6FEE7BB
:1004200070470000F8B50024009490F82420254679
:10043000012A12D0012280F824204A681F23072AAB
:100440000DD20668776B521E02EB820293409F43E7
:100450000B6893401F43776319E00220F8BD0668DC
:100460000D2A0AD2376BD21F02EB820293409F43C0
:100470000B6893401F43376309E0F76A0D3A02EBBC
:10048000820293409F430B6893401F43F7620A68C0
:10049000072306680A2A0AD3F7680A3A02EB4202DF
:1004A00093409F438B6893401F43F76008E0376990
:1004B00002EB420293409F438B6893401F43376196
:1004C0000A68102A01D0112A20D1124B02689A42E0
:1004D00017D193681B0219D4936843F40003936007
:1004E0000968102912D10C490C4A0968B1FBF2F1D4
:1004F00001EB8101490000E0491E00910029FBD178
:1005000004E0816A41F020018162012480F82450D6
:100510002046F8BD002401401800002040420F0092
:1005200070B504460E4800F0F7F90D48844210D12A
:100530000C4C208801F0AEFCA4F10805286060880E
:1005400001F02AFE084901F03BFE084901F042FD96
:100550006860BDE8704002220249014800F056B9C7
:100560003800002008000020713D5A4000F07F450F
:100570007047704770B50446006806684568A9066C
:1005800025D5B10723D5A16AC90603D4A16A41F4D0
:100590000071A1628168C1F34241072910D1217B1A
:1005A00071B9416821F020014160A06A20F4807097
:1005B000A062A06AC00403D4A06A40F00100A06257
:1005C0002046FFF7ADFF21686FF012000860280693
:1005D0002ED570072CD5A06AC00603D4A06A40F4BB
:1005E0000050A06220688168C1F30231072909D058
:1005F0004168490515D48168C1F34241072910D1EA
:10060000217B71B9416821F080014160A06A20F42A
:100610008050A062A06AC00503D4A06A40F0010027
:10062000A0622046FFF7FCFE21686FF00C00086016
:1006300068060CD5F0070AD0A06A40F48030A062AA
:10064000204600F093F821686FF00100086070BD4B
:100650002DE9F0414FF0000704003D467ED0A06A2E
:10066000002628B9E66284F82460204600F080F86D
:100670002046FFF713FEA16AC90600D420B1A06A84
:1006800040F01000A06269E0A16A21F4885141F0B5
:100690000201A1626268E169237B0A4347EA4301E0
:1006A0000A43A1684FF48077B94209D0012907D0E5
:1006B0005FF0000194F814C0BCF1010F02D00AE011
:1006C0003946F7E7F3B1A36A43F02003A362E36A74
:1006D00043F00103E3622368D3F804C02CF4694CAF
:1006E0004CEA010CC3F804C021688B68DFF870C0C5
:1006F00003EA0C0313438B60A168B9420BD00129B4
:1007000009D00CE0DFF85CC0A3690CEB43330B436A
:1007100043F40061DFE7218A0D05A5F58015216806
:10072000CB6A23F470032B43CB62216889680E4B9C
:100730001940914208D1E662A16A21F0020141F01C
:100740000101A162BDE8F081A06A20F0020040F042
:100750001000A062E06A40F00100E0620120F1E7D1
:10076000FDF7E1FF00E0FFFFFE0E1FFF70470000F6
:1007700070B586B000250646009501950295039553
:1007800000681D49884235D11C49886940F40070D1
:100790008861886900F400700490886940F0040062
:1007A00088618869694600F0040004904420009044
:1007B00003200190124800F00DFA134C1148C4E9CF
:1007C00000058020C4E90250400020618000C4E997
:1007D00005052046E56100F097F908B1FFF71EFE18
:1007E0003462002201211220666200F04FFB1220C9
:1007F00000F03EFB06B070BD002401400010024036
:100800000008014008000240680000202DE9F04780
:10081000894604463B4900683B4F0E1D904688427E
:1008200001D0B84207D1306810F4702F03D00125F1
:100830002846BDE8F08794F8240001280CD0012058
:1008400084F824002046FFF78DFD05004FF00000DE
:1008500004D084F82400EBE70220EAE7A16A40F61E
:100860000162914341F48071A1622168B94218D1BB
:10087000326812F4702F14D0A16A41F48011A16281
:100880003168490505D5A16A21F4005141F4805130
:10089000A162A16AC9040AD5E16A21F00601E162F8
:1008A00006E0A26A22F48012A2624968E9E7E062E7
:1008B00084F82400216A15488862216A1448C862B5
:1008C000216A1448086321686FF0020008602068FC
:1008D000816841F480718160216843464A464C3109
:1008E000206A00F03FF920688168C1F3424107297E
:1008F000816803D041F48011816099E741F4A0013F
:10090000FAE700000024014000280140F30200083B
:100910005B0300084103000810B5044690F824006A
:10092000012807D0012084F824002046FFF7B6FCF8
:1009300010B113E0022010BD21688A6822F4807291
:100940008A60216A91F82120022A07D1084600F026
:100950000EF8A16A30B141F04001A162002184F893
:10096000241010BD21F4885141F00101F5E710B5C4
:1009700090F821100022022905D00421816380F81B
:100980002020012010BD01680B6823F00E030B60CE
:1009900001680B6823F001030B6090F84030C46BD2
:1009A000012101FA03F3636080F8211080F8202010
:1009B000104610BD2DE9F05FC16B0C6801680B6833
:1009C000D0F840C0042202FA0CF2494DDFF824A10D
:1009D000494E4A4FDFF828B1DFF828E122422CD0F7
:1009E0005A072AD50A68920603D40A6822F004023C
:1009F0000A600168A94201D1042219E0514501D1E0
:100A0000402215E0B14202D14FF4806210E0B942B9
:100A100002D14FF480420BE0594502D14FF48022BD
:100A200006E0714502D14FF4800201E04FF0806290
:100A30002F4908394A60C16A3BE04FF0020808FAC2
:100A40000CF818EA040F4FF000094FF0010235D0FE
:100A50005FEA837832D50B689B0605D40B6823F0D8
:100A60000A030B6080F821200168A94201D102220B
:100A700019E0514501D1202215E0B14202D14FF4D5
:100A8000007210E0B94202D14FF400520BE0594518
:100A900002D14FF4003206E0714502D14FF400124A
:100AA00001E04FF00072124908394A6080F8209046
:100AB000816A00291AD0BDE8F05F0847082505FAC9
:100AC0000CF5254212D01B0710D50B6823F00E033E
:100AD0000B6090F84010C36B02FA01F15960826319
:100AE00080F8212080F82090016BE2E7BDE8F09FBC
:100AF000080002401C000240300002404400024056
:100B0000580002406C00024030B528B308C81349B1
:100B100014221944B1FBF2F18900C16310498163C9
:100B2000022141771A6843F6F0718A43D0E9001434
:100B30002143D0E902452C43214304692143446900
:100B4000214384692143114319600021416301223B
:100B500042770177084630BD012030BDF8FFFDBF68
:100B60000000024070B5044690F8200000250128DE
:100B70000CD0012084F8200094F821600020012E80
:100B800006D084F820000225284670BD022070BDE2
:100B9000022684F82160A0632068066826F001061A
:100BA00006602046FFF724FCE06A00282068016800
:100BB00002D041F00E0106E021F00401016020683E
:100BC000016841F00A0101602068016841F00101FB
:100BD0000160D9E72DE9F84FDFF8B8910024A9F1B9
:100BE000040B23460F2709F1040AABF1040EC9E0F8
:100BF0000125A5402A40AA427DD1674ED1F804C004
:100C0000ACEB0608B44532D014DCBCF1030F3AD08B
:100C100009DCBCF1000F2AD0BCF1010F1CD0BCF1E3
:100C2000020F31D11DE0BCF1110F17D0BCF1120F32
:100C30002AD119E0B8F5881F19D006DCB8F5803F35
:100C400015D0B8F5801F1FD111E0B8F5001F0ED0E8
:100C5000B8F5041F18D10AE0CB6815E0CB681B1D5E
:100C600012E0CB6808330FE0CB680C330CE08B68E4
:100C70002BB1012B4FF0080303D0456104E004239E
:100C800002E0056100E00023FF2A01D8064601E0EA
:100C900000F104064FEA840501D9A5F12005D6F834
:100CA000008007FA05FC28EA0C0803FA05F548EA73
:100CB0000508C6F800804D68ED0062D5374DAE6975
:100CC00046F00106AE61AD6924F0030605F00105AA
:100CD0000095334D06EB050CDCF80850A607360FDF
:100CE00007FA06F825EA0805DFF8B880404503D181
:100CF0004FF0000817E044E0DFF8AC80404502D137
:100D00004FF001080FE0DFF8A480404502D14FF01A
:100D1000020808E0DFF89880404502D14FF0030850
:100D200001E04FF0040808FA06F848EA0508CCF894
:100D300008804D68D9F80060ED024D4601D5164394
:100D400000E096432E604D68DAF80060AD0255462B
:100D500001D5164300E096432E604D68DBF8006035
:100D6000AD035D4601D5164300E096432E604D6805
:100D7000DEF80060ED03754601D5164300E09643AA
:100D80002E60641C0D682A46E5407FF431AFBDE853
:100D9000F88F00000804014000001110001002400C
:100DA0000000014000080140000C0140001001401B
:100DB0000014014001488068704700000C000020CA
:100DC0000248816802781144816070470C0000205D
:100DD000074810B5016841F010010160032000F0E0
:100DE00075F8002000F006F800F024F8002010BD8F
:100DF0000020024070B50D4D04464FF47A712878FA
:100E0000B1FBF0F00A490968B1FBF0F000F032FBE9
:100E100048B9102C07D200222146501E00F036F8A7
:100E200000206C6070BD012070BD00000C0000202F
:100E3000180000200C4808B5816941F0010181616A
:100E4000816901F001010091C16941F08051C161E6
:100E5000C06900F0805000900448416821F0E061D2
:100E600041F00071416008BD0010024000000140E7
:100E7000002809DB00F01F02012191404009800099
:100E800000F1E020C0F8001170470000F0B40E4BF4
:100E90001B680C46C3F30223C3F10705042D00D9D8
:100EA0000425191D072901D2002300E0DB1E0126BD
:100EB00006FA05F1491E214099409E40761E1640D3
:100EC0003143F0BC00F0D6BF0CED00E0064900F065
:100ED000070208684FF6FF03184040EA0220034A61
:100EE00010430860704700000CED00E00000FA05B8
:100EF0002DE9F84305460078354CC00754D0E06929
:100F00000026C00008D4E06940F08050E061E0694C
:100F1000012600F0805000902E480168C90512D4C7
:100F20000168804641F480710160FFF743FF074686
:100F300005E000BFFFF73EFFC01B642823D8D8F8A8
:100F40000000C005F6D5206A10F4407021D0A988B1
:100F500001F4407181421CD0206A1F49012220F413
:100F600040700A6000220A602062C00711D0FFF7BB
:100F700021FF074641F2883808E000BFFFF71AFF5B
:100F8000C11B414502D90320BDE8F883206A8007D0
:100F9000F4D5206A696820F44070084320621EB1CD
:100FA000E06920F08050E0612878800705D560680E
:100FB000A96820F44040084360602878C00605D541
:100FC0006068E96820F48000084360600020DBE787
:100FD0000010024000700040400442422DE9F047FA
:100FE0000F46050061D0434E306800F00700B8425C
:100FF00009D2306820F0070038433060306800F0D4
:101000000700B84251D128683B4C810712D54007F0
:1010100003D5606840F4E06060602878000703D57D
:10102000606840F4605060606068A96820F0F0007B
:10103000084360602878C00728D06868012810D06D
:101040002168022810D0890700292EDA616821F072
:10105000030101436160FFF7ADFE804641F288392C
:101060000DE021688903EFE78901EDE7FFF7A2FEB4
:10107000A0EB0801494502D90320BDE8F08760686C
:10108000696800F00C00B0EB810FEFD1306800F020
:101090000700B8420BD9306820F0070038433060B1
:1010A000306800F00700B84201D00120E5E7287859
:1010B000400705D56068E96820F4E0600843606097
:1010C0002878000706D56068296920F4605040EA56
:1010D000C100606000F018F86168084AC1F30311AC
:1010E000515CC8400649086006480068FFF782FE68
:1010F0000020C2E7002002400010024048250008FE
:1011000018000020100000200E4A51680E4801F01F
:101110000C03042B11D0082B0FD10C48C1F38343CF
:10112000C903C05C0AD55168084AC1F34041921E08
:10113000515C054A5043B0FBF1F070470449484305
:10114000704700000010024000127A0038250008A5
:1011500000093D002DE9F84F040070D02078C04D03
:10116000C00749D06868C0F38100012807D06868CB
:10117000C0F38100022809D16868C00306D5286839
:10118000800339D560680028E7D035E06068B0F5A5
:10119000803F0BD010B1B0F5A02F11D0286820F4FB
:1011A00080302860286820F4802002E0286840F41D
:1011B00080302860606890B1FFF7FCFD06460AE0C9
:1011C000286840F480202860F0E700BFFFF7F2FDB8
:1011D000801B642873D828688003F7D50CE0FFF7DC
:1011E000E9FD064605E000BFFFF7E4FD801B64282B
:1011F000F0D828688003F7D420789A4E80074FF003
:1012000001094FF0000839D5686810F00C0F07D0BD
:101210006868C0F38100022809D16868C00306D459
:101220002868800714D52069012808D110E02069BA
:10123000B0B1C6F80090FFF7BDFD074605E00AE132
:10124000FFF7B8FDC01B0228C4D828688007F7D56F
:101250002868616920F0F80040EAC10028600DE0CC
:10126000C6F80080FFF7A6FD074604E0FFF7A2FDE1
:10127000C01B022823D828688007F7D420780007ED
:101280002CD57948A169D9B1C0F80090FFF792FD3B
:10129000074604E0FFF78EFDC01B02280FD8686ADE
:1012A0008007F7D571484FF4FA510068B0FBF1F0B0
:1012B000009000BF0098411E0091FAD20EE080E03D
:1012C000C0F80080FFF776FD074604E0FFF772FDE7
:1012D000C01B022875D8686A8007F7D420784007B9
:1012E00060D5E8690027C00008D4E86940F0805064
:1012F000E861E869012700F0805000905C480168CF
:10130000C90513D40168834641F480710160FFF779
:1013100051FD824606E000BFFFF74CFDA0EB0A003E
:1013200064284ED8DBF80000C005F5D5E068012838
:101330000AD008B1052813D0286A20F001002862DD
:10134000286A20F0040002E0286A40F001002862C8
:10135000E06841F2883B98B1FFF72CFD82460BE034
:10136000286A40F004002862EEE700BFFFF722FD84
:10137000A0EB0A0159455AD8286A8007F6D50CE037
:10138000FFF718FD824605E0FFF714FDA0EB0A0108
:1013900059454CD8286A8007F6D41FB1E86920F077
:1013A0008050E861E06988B36968C1F3810102296E
:1013B00044D00228C6F8608004D0FFF7FBFC044646
:1013C00038E034E0FFF7F6FC074604E0FFF7F2FCF4
:1013D000C01B02282BD828688001F7D4206AB0F5FA
:1013E000803F05D16868A16820F400300843686038
:1013F000D4E908010843696821F47411084368605E
:10140000C6F86090FFF7D6FC044606E025E000BF72
:10141000FFF7D0FC001B022809D828688001F7D507
:101420001BE000BFFFF7C6FC001B022802D9032007
:10143000BDE8F88F28688001F4D40EE00128F7D0C9
:101440006868226A00F48031914204D1616A00F434
:101450007010884201D00120EAE70020E8E7000090
:101460000010024000004242800442421800002066
:101470000070004010B5401EB0F1807F01D3012004
:1014800010BD4FF0E02460610F21601700F0F2FC06
:101490000020A06107202061002010BD10B590F849
:1014A0003C20012A22D0012280F83C20CA688C68A6
:1014B00022F4407222434C6822F4806222430C687A
:1014C00022F4006222430C6922F4805222434C69C8
:1014D00022F400522243C969002322F480420A43C5
:1014E00001684A6480F83C30002010BD022010BD25
:1014F00070B590F83C20012A26D0012480F83C40A9
:10150000022280F83D2003685A689D6822F0700628
:101510000A6832435A600D4B02689A4208D0B2F111
:10152000804F05D00A4B9A4202D00A4B9A4204D10E
:10153000496825F080031943916080F83D400021FF
:1015400080F83C10084670BD022070BD002C0140A0
:10155000000400400008004010B5040003D094F8D7
:101560003D0010B107E0012010BD002084F83C00D0
:10157000204600F01FF8022084F83D00211D20685D
:1015800000F056FB012084F8460084F83E0084F801
:101590003F0084F8400084F8410084F8420084F859
:1015A000430084F8440084F8450084F83D0000209E
:1015B00010BD000008B50C4A01680C48914207D1E3
:1015C000816941F400618161806900F4006009E093
:1015D000B1F1804F07D1C16941F00101C161C0691A
:1015E00000F00100009008BD002C014000100240F6
:1015F00070B5044690F83C000025012817D001265C
:1016000084F83C60022084F83D002068826822F063
:10161000770222F47F4282600868502838D00DDCBF
:1016200020284FD005DC90B3102811D14AE00220C9
:1016300070BD302846D040280AD13BE060282FD02A
:1016400070280DD0B0F5805F03D0B0F5005F12D0E8
:10165000012584F83D60002084F83C00284670BDD8
:10166000CB68D1E90121206800F02BFB206881685C
:1016700041F0770109E0CB68D1E90121206800F051
:1016800020FB2068816841F480418160E1E719E036
:10169000CA684968206800F0C9FB5021206806E04C
:1016A000CA684968206800F0D2FB6021206800F019
:1016B00012FBCEE7CA684968206800F0B7FB4021FA
:1016C0002068F4E7226801461046F0E700B585B0CF
:1016D0000021009101910291039100680B49884219
:1016E00012D10B48816941F004018161806969462A
:1016F00000F0040004904FF48070009002200190EC
:1017000003900448FFF766FA05B000BD002C0140C5
:10171000001002400008014070B5044690F83C00FB
:1017200000260D4601280FD0012084F83C006AB144
:10173000042A1DD0082A2FD00C2A3FD001260020D1
:1017400084F83C00304670BD022070BD206800F077
:10175000CBFA2068816941F00801816120688169C4
:1017600021F004018161206881692A69114311E037
:10177000206800F0E1FA2068816941F4006181612C
:101780002068816921F480618161206881692A690A
:1017900041EA02218161D2E7206800F0F9FA20686D
:1017A000C16941F00801C1612068C16921F00401EB
:1017B000C1612068C1692A69114311E0206800F005
:1017C00013FB2068C16941F40061C1612068C169EF
:1017D00021F48061C1612068C1692A6941EA02215E
:1017E000C161ACE710B5040003D094F83D0010B11E
:1017F00007E0012010BD002084F83C00204600F0E6
:101800001EF8022084F83D00211D206800F010FA27
:10181000012084F8460084F83E0084F83F0084F8F4
:10182000400084F8410084F8420084F8430084F8C2
:10183000440084F8450084F83D00002010BD704746
:1018400010B50446022249B104290ED0082913D04C
:1018500094F84100012816D0012010BD94F83E00F4
:101860000128F9D184F83E200FE094F83F000128C8
:10187000F2D184F83F2008E094F840000128EBD131
:1018800084F8402001E084F841200122206800F023
:101890000BFA0F492068884203D1426C42F400429F
:1018A00042642068884208D0B0F1804F05D00949D1
:1018B000884202D00849884204D1816801F00701BA
:1018C000062903D0016841F001010160002010BD2C
:1018D000002C01400004004000080040FEE700002A
:1018E0003EB50021174800910191154A029102600E
:1018F0009215826001250573017502244FF4602260
:101900000461C2614160FEF7A3FE08B1FEF786FDE7
:1019100005200094CDE9015069460A48FEF782FD92
:1019200008B1FEF77BFD0620CDE9000469460548B5
:10193000FEF778FD002801D0FEF770FD3EBD0000E7
:101940000024014038000020094808B5416941F0F1
:10195000010141614069002200F001000090012175
:101960000B20FFF793FABDE808400B20FFF780BA81
:101970000010024000B585B0002001900290039055
:101980000C48816941F020018161816901F02001E9
:101990000491816941F0040181618069694600F028
:1019A00004000490802000900348FFF713F905B06D
:1019B00000BD0000001002400008014010B596B0C4
:1019C00000240F9410941194129413941C2108A8CD
:1019D0001494FEF7F9FB20216846FEF7F5FB284832
:1019E0002649C0E9001440F63F31C0E90241802198
:1019F0000461C0E90541FFF7AFFD08B1FEF70EFD38
:101A00004FF480500F900FA91D48FFF7F1FD08B16A
:101A1000FEF704FD1A48FFF7E5FE08B1FEF7FEFCED
:101A2000139413A916481494FFF762FD08B1FEF74A
:101A3000F5FC6020CDE908040A940B940C940D94F5
:101A4000002208A90E480E94FFF766FE08B1FEF7C3
:101A5000E5FC00944FF40050CDE904400294019459
:101A60000394694606480794FFF718FD08B1FEF78E
:101A7000D5FC0348FFF72AFE16B010BD002C01402C
:101A8000AC00002010B586B00024164800940194E4
:101A90000294039404944FF080410594016047211F
:101AA000C0E901144FF6FF71C0E903148461FFF728
:101AB00053FD08B1FEF7B2FC4FF480500090694628
:101AC0000848FFF795FD08B1FEF7A8FC049404A9A7
:101AD00004480594FFF70CFD002801D0FEF79EFC9A
:101AE00006B010BDF4000020FEE7FEE72DE9F04748
:101AF000254C264900F030FC0646254F254D214651
:101B000000F05EFB244C8246A16800F0FBF98046A1
:101B10000146A060606800F053FB814631462068B2
:101B200000F04EFB294600F0EDF9494600F0EAF9D5
:101B30000546B8420CDD3D46B6F5000F13DB5046B6
:101B40004FF0FF3100F0B9FC414600F005FC09E020
:101B50001248854207D30025864204D350464146A9
:101B600000F0D0F9A0600E49A068884202DC0D495F
:101B7000884200D9A160284600F0EEFA0A490968B7
:101B80004863BDE8F08700006F12833A00004041CF
:101B9000000034450000B4441C0000200000808098
:101BA00000004843000048C3AC0000207047704765
:101BB000FFF706B930B593B028216846FEF704FB5D
:101BC00014210AA8FEF700FB002501200F951095AF
:101BD0001195010412958DE8230004904FF4E01054
:101BE000CDE90810022407946846FFF7B3FA08B15C
:101BF00072B6FEE70AA90F2081E831004FF4806039
:101C0000CDE90D0502210AA8FFF7E8F908B172B67F
:101C1000FEE74FF4004011900F940FA8FFF768F90A
:101C2000002801D072B6FEE713B030BD7047000047
:101C3000F0B50268194B1A4C1A4D4FF08047984284
:101C400005D0B84203D0A04201D0A84203D122F06F
:101C500070064A683243984205D0B84203D0A04289
:101C600001D0A84203D122F44074CA6822434C69CF
:101C700022F08002224302608A68C2620A6882629D
:101C8000984201D109690163012141610169C907D4
:101C900003D0016921F001010161F0BD002C014078
:101CA000000400400008004010B501F01F030121AE
:101CB000046A99408C430462016A9A4011430162AC
:101CC00010BD10B5846842EA032224F47F440A431D
:101CD0002243826010BD826822F070020A4342F003
:101CE000070181607047000030B5036A026A22F084
:101CF000010202624268846924F073050C682C4377
:101D000023F002058B682B430A4DA8420BD123F028
:101D10000805CB6822F440722B434D6923F004037D
:101D200015438A692A4342608461496841630362BA
:101D300030BD0000002C014030B5026A036A23F078
:101D400010030362436884690D6824F4E64444EA9E
:101D500005248D6822F0200242EA05120B4DA842AC
:101D60000ED1CD6822F0800242EA05124D6923F4BB
:101D7000406343EA85038D6922F0400243EA85030C
:101D80004360846149688163026230BD002C014078
:101D900030B5036A026A22F4807202624268C46942
:101DA00023F4007324F073050C682C438D6843EA18
:101DB00005230C4DA8420ED1CD6823F4006343EAFD
:101DC00005234D6922F4405242EA05128D6923F43D
:101DD000806342EA05124260C4614968C1630362DC
:101DE00030BD0000002C014030B5046A026A22F4C4
:101DF000805202624268C3690D6823F4E64343EAF5
:101E000005238D6824F4005444EA0534064DA842A5
:101E100004D14D6922F4804242EA85124260C361D6
:101E200049680164046230BD002C014010B5036AAA
:101E3000046A24F001040462846924F0F00444EA92
:101E4000021423F00A020A438461026210BD10B535
:101E5000036A046A24F010040462846923F0A00376
:101E600024F4704444EA023243EA011182610162BF
:101E700010BDFEE70907090E002804DB00F1E02091
:101E800080F80014704700F00F0000F1E02080F8A7
:101E9000141D704710B500F07FF9054900F090F966
:101EA000044900F097F8BDE81040034900F088B9F4
:101EB000713D5A4000F07F450000C040FEF788FFAA
:101EC000FFF778FEFFF756FDFFF73EFDFFF776FDC3
:101ED000FFF706FDFFF7D6FD00210748FFF7B0FC2E
:101EE000022206490648FEF791FC044C083C206893
:101EF000FFF7FCFDFBE70000AC000020080000201D
:101F00003800002090EA010F48BF81F0004100F145
:101F10003482421A3CBF801A89184FEAD0524FF0DF
:101F20007F4C1CEA410FA2EBD15318BF9CEA026F11
:101F300000F03B804FF0004C4CEA00204CEA0121BD
:101F400021FA03FC10EB0C0C1ED202F1FF325FEA07
:101F50001C2040EBC25038BF70471CF07F0F4FEA87
:101F6000400C18BFBCF17F4F38BF7047C3F120034E
:101F7000994008BF20F00100BCF17F4F38BF704787
:101F8000A0F1C04000F0E3B94FEA3C00000A40EB8A
:101F9000C25028BF1CF0FF0F4FEA400CE6D018BF1C
:101FA000BCF17F4F38BF7047EAE79CEA026F05D06B
:101FB00010EA5C0F08BF00F00040704710B500F059
:101FC00080F900BF64FBBE3E014800F044BA00BF88
:101FD0000000C07F4FF47F0C1CEAD0121EBF1CEA29
:101FE000D11392EA0C0F93EA0C0F00F0858090EA6F
:101FF000010F48BF42F4807240F4000C41F400002D
:102000002CF07F4120F07F4000B58142A2EB03021B
:102010000FF2081CACEB504EC0F100009EF800E03F
:102020004FEA4E0E00FB0EFC38BF49004FEA2C1C55
:1020300002F5FA020CFB0EF34FEACE1E4FEA112C0A
:102040004FEAC1210EEB635E42EB22420EFB0CFC19
:102050004FEA1C5300FB03114FEA112C4FEA0131E8
:102060000EFB0CFC4FEADC4C00FB0C11C14228BFFC
:1020700009184CEB03335DF804EB10EB410143EB23
:10208000C250B2F57C0F38BF704729D512F0F00F5F
:102090001CBF00F1C04000F0004070470081828307
:1020A0008485868788898B8C8D8E8F919293959667
:1020B00097999A9C9D9FA0A2A3A5A7A8AAACAEB0F1
:1020C000B2B3B5B7B9BCBEC0C2C5C7C9CCCED1D4F6
:1020D000D7D9DCDFE2E6E9ECF0F3F7FAFE00000026
:1020E0004FEA400C0CF1807CBCF17E4F28BF70475A
:1020F000B0F1C04000F02BB990EA010F0CEAD11307
:1021000048BF42F48072624538BF634507D213F47A
:102110007F0F16D080EA010000F00040704710B534
:1021200000F0CFF8097EFC3E00F005B880EA01001F
:1021300000F00040704780EA010000F0004000F02D
:1021400006B912F47F0F04BF0248704780EA01000D
:1021500000F0FDB80000C07FC10DD1F19E0206DB8A
:102160004FEA002343F0004323FA02F07047004295
:1021700007D54FEA4001B1F1FE4F02D24FF0000007
:10218000704710B500F09DF84992248000207047F8
:102190006FEA200070470000B0FA80F310FA03F2F3
:1021A000C3F19D030AD0D90501EB1220530638BFB5
:1021B000704700F1010008BF20F0010070470000E7
:1021C0004FF47F0C1CEAD0121EBF1CEAD11392EA16
:1021D0000C0F93EA0C0F00F0478090EA010F48BF04
:1021E00042F480724FF0004C4CEA00204CEA01218E
:1021F00002EB0302A0FB0113A2F50002002918BFA5
:1022000043F001035B0028BF4FEA330342EB224255
:102210005FEA132C4CEBC2502EBFBCEB436FB2F500
:102220007C0F70474FEA036CBCF1004F08BF20F0F1
:102230000100B2F57C0F38BF70470BD582F0FF026A
:1022400012F5803FC8BF704700F1C040D8BF00F012
:102250000040704700F5000C5FEA4C0C48BF704727
:10226000B0F1C04000F073B890EA010F0CEAD1134E
:1022700048BF42F48072624538BF634504D280EAA9
:10228000010000F00040704710B500F01AF800BFE0
:102290008900013E00F007B800F009B85FEA410C80
:1022A0005FEA1C6C08D080EA010000F050B85FEAD9
:1022B000400C5FEA1C6CF6D14FF00040A0F58000A6
:1022C00070470EF1020E2EF0030E5EF8044B24420E
:1022D00004D44FEA4102B2F17F4F11D84FEA4003D4
:1022E000B3F17F4F0CD80ED14FEAD07CB2F17F4FC3
:1022F0000CEB4C0C0CF1020C08BF4CEBD17C04E055
:102300004FF0080C01E04FEAD17C0CEB4C0324FAAF
:1023100003F404F00704B4F1040C06D20EEB840CB1
:10232000BDE810404CF0010C6047DFE80CF00708F6
:1023300002024FF00040A0F5800010BD08464200A8
:1023400018BFD2F1807288BF00F0004010BDFF219D
:1023500041EAD050C005704780F0004090EA010F7C
:102360007FF5D7AD81F0004100F007B890EA010F8A
:1023700048BF81F000413FF5CCAD421A04D882F04D
:102380000042A0EB020011444FEAD0524FF07F4CC4
:102390001CEA410FA2EBD15318BF9CEA026F4AD04E
:1023A0004FF0004C4CEA00204CEA012121FA03FCDA
:1023B000B0EB0C0C0FD412F0FE0F36D05FEA4C00DD
:1023C0001DD5001240EBC25038BF70471CF03F0FC4
:1023D00018BF70470BE0A2F101025FEA1C2040EB3E
:1023E000C25038BF70471CF07F0F18BF7047C3F151
:1023F0002003994014BF401E20F001007047800860
:102400004FEA122308BF7047B0FA80FCA2EB0C021F
:10241000CCF1280C60FA0CF093EA122F04BF00EB09
:10242000C25070474FEAC3707047130A5FEADC106E
:1024300008BF7047F6E79CEA026F04D010EA5C0F11
:1024400008BF0020704710B5FFF73BFF40DFF63EA6
:1024500081F0004070470CF00F03092B08BF0820E3
:1024600000F051800A2B0BD0082B18BF704708BF13
:102470001CF0400F0AD04FF000004FF000017047F1
:102480001CF0400F18BF4FF0004070471CF0100FB9
:1024900008D020F0704300F07F4242EAD3014FEAB7
:1024A0004370704700F0604021F07F4242EA000232
:1024B00001F07F4040EA727070474FF0FF0212EA6D
:1024C000D0521CBF92F0FF038B42C2BFD14200EB3F
:1024D000C1507047002A0AD0002B0BD0002900F011
:1024E0000040A4BF40F0FE4040F40000704700F000
:1024F0000040704743024FF00B0C18BF4CF0806C4B
:102500007FF462AD70471CF4801F11D01CF4E02FE3
:1025100003D06FEACC31490070474FF04050EFF3E1
:10252000008222F0704242EA000282F30088704783
:102530004FF0000070470102020304050607080976
:102540000A0B0C0D0E0F1010000000000000000020
:10255000010203040607080978250008000000208E
:102560003800000028010008B025000838000020CD
:10257000680700004401000800000000000000009F
:10258000000000000100000010000000000000003A
:1025900000127A000000DC429A99C9410000000054
:1025A00000000000000090420000000000005842BF
:04000005080000ED02
:00000001FF
