:020000040800F2
:10000000080A002089010008473000080F24000872
:1000100045300008490400089D3500080000000034
:100020000000000000000000000000004B3000084D
:100030008304000800000000493000084D3000082B
:10004000A3010008A3010008A3010008A301000800
:10005000A3010008A3010008A3010008A3010008F0
:10006000A3010008A3010008A30100084D04000833
:10007000A3010008A3010008A3010008A3010008D0
:10008000A3010008A3010008F9020008A301000869
:10009000A3010008A3010008A3010008A3010008B0
:1000A000A3010008A3010008A3010008A3010008A0
:1000B000A3010008A3010008A30100081D240008F3
:1000C00011240008A3010008A3010008A3010008EF
:1000D000A3010008A3010008A3010008913500084E
:1000E000A3010008A3010008A301000800F002F822
:1000F00000F03AF80AA090E8000C82448344AAF188
:100100000107DA4501D100F02FF8AFF2090EBAE885
:100110000F0013F0010F18BFFB1A43F0010318473B
:10012000CC3D0000EC3D0000103A24BF78C878C1F7
:10013000FAD8520724BF30C830C144BF04680C60ED
:10014000704700000023002400250026103A28BF35
:1001500078C1FBD8520728BF30C148BF0B60704739
:100160001FB51FBD10B510BD00F08CF81146FFF78C
:10017000F7FF03F0D7FA00F0AAF803B4FFF7F2FF95
:1001800003BC00F0B1F80000094880470948004767
:10019000FEE7FEE7FEE7FEE7FEE7FEE7FEE7FEE737
:1001A000FEE7FEE704480549054A064B7047000094
:1001B000C9300008ED00000808040020080A0020EB
:1001C000080600200806002030B505460B462A46E2
:1001D00013F8014B12F8010B08B1A042F8D01CB182
:1001E000002802D06D1CF1E7284630BD4FF0000218
:1001F0000429C0F0128010F0030C00F01B80CCF139
:10020000040CBCF1020F18BF00F8012BA8BF20F8A6
:10021000022BA1EB0C0100F00DB85FEAC17C24BFFA
:1002200000F8012B00F8012B48BF00F8012B7047A4
:100230004FF0000200B5134694469646203922BF7F
:10024000A0E80C50A0E80C50B1F12001BFF4F7AFCA
:10025000090728BFA0E80C5048BF0CC05DF804EBAC
:10026000890028BF40F8042B08BF704748BF20F81A
:10027000022B11F0804F18BF00F8012B7047704718
:1002800070477047754600F02BF8AE46050069468A
:10029000534620F00700854618B020B5FFF782FFCF
:1002A000BDE820404FF000064FF000074FF0000877
:1002B0004FF0000B21F00701AC46ACE8C009ACE8F8
:1002C000C009ACE8C009ACE8C0098D46704710B55C
:1002D0000446AFF300802046BDE81040FFF74DBF55
:1002E00000487047A403002001491820ABBEFEE778
:1002F0002600020070470000014800F06FB90000BE
:100300004000002070B5044600688168C943C907F1
:1003100017D1816821F00101816000F0E1FD0546FF
:100320000AE000BF00F0DCFD401B022804D9206871
:100330008068C043C00706D020688068C043C007FB
:10034000F0D0002070BDA06A40F01000A062E06A0A
:1003500040F00100E062012070BD10B50146406A26
:10036000826A12F0500F05D0006A026BBDE810409F
:1003700008461047816A41F400718162016889680A
:10038000C1F3424107290CD1017B51B9816A21F4A3
:1003900080718162816AC90403D4816A41F00101DC
:1003A000816200F0F1F810BD10B5406A816A41F039
:1003B00040018162C16A41F00401C16200F00DF99F
:1003C00010BD10B5406A00F007F910BDF8B5002661
:1003D0000446009600688168C943C9072DD081682A
:1003E00041F001018160164816490068B0FBF1F048
:1003F00000E0401E00900028FBD100F071FD054692
:1004000016E000BF00F06CFD401B022810D92068E8
:100410008068C043C0070BD0A06A40F01000A06203
:10042000E06A40F00100E06284F824600120F8BD39
:1004300020688068C043C007E4D10020F8BD0000F8
:100440001C00002040420F00FEE70000014800F0C1
:1004500035BB00007000002030B590F840500124FA
:10046000AC40C56B6C60046863604368102B036824
:1004700003D099600068C26030BD9A600068C160B6
:1004800030BD704772B6FEE770470000F8B5002433
:10049000009490F824202546012A12D0012280F8E9
:1004A00024204A681F23072A0DD20668776B521E44
:1004B00002EB820293409F430B6893401F43776394
:1004C00019E00220F8BD06680D2A0AD2376BD21F48
:1004D00002EB820293409F430B6893401F433763B4
:1004E00009E0F76A0D3A02EB820293409F430B68E2
:1004F00093401F43F7620A68072306680A2A0AD353
:10050000F7680A3A02EB420293409F438B6893409C
:100510001F43F76008E0376902EB420293409F43B4
:100520008B6893401F4337610A68102A01D0112A53
:1005300020D1124B02689A4217D193681B0219D43A
:10054000936843F4000393600968102912D10C49A1
:100550000C4A0968B1FBF2F101EB8101490000E0AE
:10056000491E00910029FBD104E0816A41F020017D
:100570008162012480F824502046F8BD0024014007
:100580001C00002040420F0070B504460E4800F0E9
:10059000F7F90D48844210D10C4C208803F010F874
:1005A000A4F10C056860608803F0D0FA084903F0F4
:1005B00015FB084903F0E8F9A860BDE87040022285
:1005C0000249014800F056B9400000200C0000200C
:1005D000713D5A4000F07F457047704770B5044642
:1005E000006806684568A90625D5B10723D5A16A24
:1005F000C90603D4A16A41F40071A1628168C1F304
:100600004241072910D1217B71B9416821F02001B5
:100610004160A06A20F48070A062A06AC00403D484
:10062000A06A40F00100A0622046FFF7ADFF2168FC
:100630006FF01200086028062ED570072CD5A06A2E
:10064000C00603D4A06A40F40050A062206881680C
:10065000C1F30231072909D04168490515D48168E1
:10066000C1F34241072910D1217B71B9416821F0C2
:1006700080014160A06A20F48050A062A06AC00599
:1006800003D4A06A40F00100A0622046FFF7FCFE00
:1006900021686FF00C00086068060CD5F0070AD0DE
:1006A000A06A40F48030A062204600F093F82168F0
:1006B0006FF00100086070BD2DE9F0414FF00007B8
:1006C00004003D467ED0A06A002628B9E66284F880
:1006D0002460204600F080F82046FFF713FEA16A50
:1006E000C90600D420B1A06A40F01000A06269E001
:1006F000A16A21F4885141F00201A1626268E169B6
:10070000237B0A4347EA43010A43A1684FF48077F9
:10071000B94209D0012907D05FF0000194F814C054
:10072000BCF1010F02D00AE03946F7E7F3B1A36A42
:1007300043F02003A362E36A43F00103E36223680A
:10074000D3F804C02CF4694C4CEA010CC3F804C083
:1007500021688B68DFF870C003EA0C0313438B60D9
:10076000A168B9420BD0012909D00CE0DFF85CC0C8
:10077000A3690CEB43330B4343F40061DFE7218AA9
:100780000D05A5F580152168CB6A23F470032B4372
:10079000CB62216889680E4B1940914208D1E6620C
:1007A000A16A21F0020141F00101A162BDE8F081DE
:1007B000A06A20F0020040F01000A062E06A40F061
:1007C0000100E0620120F1E7FDF7E1FF00E0FFFF3B
:1007D000FE0E1FFF7047000070B586B0002506466C
:1007E000009501950295039500681D49884235D111
:1007F0001C49886940F400708861886900F40070C1
:100800000490886940F0040088618869694600F0B6
:10081000040004904420009003200190124800F04E
:100820006FFA134C1148C4E900058020C4E9025056
:10083000400020618000C4E905052046E56100F024
:10084000E7F908B1FFF71EFE3462002201211220F1
:10085000666200F039FE122000F028FE06B070BD7E
:10086000002401400010024000080140080002403E
:10087000700000202DE9F047894604463B49006896
:100880003B4F0E1D9046884201D0B84207D13068D8
:1008900010F4702F03D001252846BDE8F08794F8A6
:1008A000240001280CD0012084F824002046FFF702
:1008B0008DFD05004FF0000004D084F82400EBE724
:1008C0000220EAE7A16A40F60162914341F4807197
:1008D000A1622168B94218D1326812F4702F14D085
:1008E000A16A41F48011A1623168490505D5A16A68
:1008F00021F4005141F48051A162A16AC9040AD5D2
:10090000E16A21F00601E16206E0A26A22F48012A7
:10091000A2624968E9E7E06284F82400216A154888
:100920008862216A1448C862216A144808632168F1
:100930006FF0020008602068816841F48071816076
:10094000216843464A464C31206A00F08FF92068FE
:100950008168C1F342410729816803D041F48011C5
:10096000816099E741F4A001FAE70000002401400A
:10097000002801405B030008C3030008A903000826
:1009800010B5044690F82400012807D0012084F80F
:1009900024002046FFF7B6FC10B113E0022010BD82
:1009A00021688A6822F480728A60216A91F8212085
:1009B000022A07D1084600F00EF8A16A30B141F0D2
:1009C0004001A162002184F8241010BD21F4885157
:1009D00041F00101F5E710B590F82110002202293D
:1009E00005D00421816380F82020012010BD01681A
:1009F0000B6823F00E030B6001680B6823F0010302
:100A00000B6090F84030C46B012101FA03F363607E
:100A100080F8211080F82020104610BD10B590F805
:100A200021100024022903D00421816301243DE028
:100A300001680A6822F00E020A6001680A6822F062
:100A400001020A601A4A0168914201D1012121E0A4
:100A5000174A1432914201D110211BE0144A283266
:100A6000914201D1891515E0114A3C32914201D1E0
:100A700089140FE00E4A5032914202D14FF4803176
:100A800008E00B4A6432914202D14FF4801101E038
:100A90004FF08071064A083A5160012180F8211018
:100AA000002180F82010416B01B18847204610BD1D
:100AB0000800024090F82100704700002DE9F05F27
:100AC000C16B0C6801680B68D0F840C0042202FAC0
:100AD0000CF2494DDFF824A1494E4A4FDFF828B106
:100AE000DFF828E122422CD05A072AD50A6892065C
:100AF00003D40A6822F004020A600168A94201D105
:100B0000042219E0514501D1402215E0B14202D141
:100B10004FF4806210E0B94202D14FF480420BE002
:100B2000594502D14FF4802206E0714502D14FF4BD
:100B3000800201E04FF080622F4908394A60C16AA3
:100B40003BE04FF0020808FA0CF818EA040F4FF0E7
:100B500000094FF0010235D05FEA837832D50B6887
:100B60009B0605D40B6823F00A030B6080F8212054
:100B70000168A94201D1022219E0514501D1202288
:100B800015E0B14202D14FF4007210E0B94202D137
:100B90004FF400520BE0594502D14FF4003206E009
:100BA000714502D14FF4001201E04FF0007212497A
:100BB00008394A6080F82090816A00291AD0BDE87F
:100BC000F05F0847082505FA0CF5254212D01B07EF
:100BD00010D50B6823F00E030B6090F84010C36B28
:100BE00002FA01F15960826380F8212080F8209098
:100BF000016BE2E7BDE8F09F080002401C000240E4
:100C00003000024044000240580002406C000240A4
:100C100030B528B308C8134914221944B1FBF2F1C6
:100C20008900C16310498163022141771A6843F644
:100C3000F0718A43D0E900142143D0E902452C43E6
:100C400021430469214344692143846921431143B9
:100C5000196000214163012242770177084630BDC7
:100C6000012030BDF8FFFDBF0000024070B5044612
:100C700090F82000002501280CD0012084F82000E5
:100C800094F821600020012E06D084F8200002256F
:100C9000284670BD022070BD022684F82160A06342
:100CA0002068066826F0010606602046FFF7D4FBA0
:100CB000E06A00282068016802D041F00E0106E0D9
:100CC00021F0040101602068016841F00A0101601F
:100CD0002068016841F001010160D9E770B5044660
:100CE00000F0FEF80546601C02D004480078044479
:100CF00000F0F6F8401BA042FAD370BD10000020AF
:100D00002DE9F84FDFF8B8910024A9F1040B234630
:100D10000F2709F1040AABF1040EC9E00125A54033
:100D20002A40AA427DD1674ED1F804C0ACEB060838
:100D3000B44532D014DCBCF1030F3AD009DCBCF16D
:100D4000000F2AD0BCF1010F1CD0BCF1020F31D131
:100D50001DE0BCF1110F17D0BCF1120F2AD119E020
:100D6000B8F5881F19D006DCB8F5803F15D0B8F566
:100D7000801F1FD111E0B8F5001F0ED0B8F5041F79
:100D800018D10AE0CB6815E0CB681B1D12E0CB68D8
:100D900008330FE0CB680C330CE08B682BB1012BD0
:100DA0004FF0080303D0456104E0042302E005612D
:100DB00000E00023FF2A01D8064601E000F1040606
:100DC0004FEA840501D9A5F12005D6F8008007FA7D
:100DD00005FC28EA0C0803FA05F548EA0508C6F8F8
:100DE00000804D68ED0062D5374DAE6946F00106D2
:100DF000AE61AD6924F0030605F001050095334DA1
:100E000006EB050CDCF80850A607360F07FA06F8C3
:100E100025EA0805DFF8B880404503D14FF0000807
:100E200017E044E0DFF8AC80404502D14FF0010804
:100E30000FE0DFF8A480404502D14FF0020808E03F
:100E4000DFF89880404502D14FF0030801E04FF0F1
:100E5000040808FA06F848EA0508CCF808804D6846
:100E6000D9F80060ED024D4601D5164300E09643E7
:100E70002E604D68DAF80060AD02554601D5164384
:100E800000E096432E604D68DBF80060AD035D46E0
:100E900001D5164300E096432E604D68DEF80060F1
:100EA000ED03754601D5164300E096432E60641CA1
:100EB0000D682A46E5407FF431AFBDE8F88F0000A9
:100EC0000804014000001110001002400000014021
:100ED00000080140000C01400010014000140140D6
:100EE000014880687047000010000020704770477C
:100EF0002DE9F041016804464A694E6890F83E00C9
:100F00000025D743FA050BD4F243D20508D46FF479
:100F1000807201254A6121680A6842F400420A6031
:100F2000B90508D4F143C90505D422686FF40071EE
:100F300045F002055161790525D4F143C90522D454
:100F4000638D94F83D10226B202808D13BB92129EC
:100F500010D029290ED0282901D1212A0AD02268AF
:100F60006FF48061516145F00405102806D04028D7
:100F700004D008E0204601F059FE04E02068016832
:100F800041F400710160380508D4F043C00505D470
:100F900021686FF4006045F008054861002D07D016
:100FA000206C284320642046BDE8F04101F0A2BA3D
:100FB000BDE8F0812DE9F047026800215368C66A58
:100FC00090F83E4090F83D50102C12D0402C10D09C
:100FD000046C002C7DD05469E443A6077AD4DE4328
:100FE000B60577D4036C03B19169BDE8F04701F011
:100FF000F9BD976951694FF42A0CC9435FEAC1787A
:101000004FF02A4904D066452AD04E4528D010E03A
:10101000DE43B6050DD4C16A614501D1012103E06B
:10102000C16A494501D10821C162BDE8F04701F01C
:101030003FBD0E0716D4DE43B60513D4416CC9B2CA
:101040001161416B09B1896A29B9816B002907D007
:10105000896A002904D00068416841F40061416058
:10106000BDE8F0878E0706D4DE43B60503D4BDE89D
:10107000F04701F071BCFE43526876074FEA025216
:101080001DD4002AECDB0A0608D4DA43520505D445
:10109000490705D5BDE8F04701F002BC4907DFD498
:1010A000D9438905DCD4212D05D0402CD8D1BDE809
:1010B000F04701F043BDBDE8F04701F0AFBB002AA7
:1010C000CEDB4A060BD4DA43520508D4490708D5CB
:1010D00001E00DE00EE0BDE8F04701F025BB490757
:1010E000BED4D9438905BBD4BDE8F04701F0AEBA00
:1010F000916970E7E10606D4D943890503D4BDE8B8
:10110000F04701F0DBBD2821212D27D0292D25D046
:10111000650655D4DD436D0552D4640752D590F869
:101120003D30448D002C9BD01269446A2270426A83
:10113000521C4262428D521E4285428D002A8FD13E
:101140002A2B8DD10268536823F4806353602222D6
:10115000026380F83D1000F04FF981E7250623D4A3
:10116000DD436D0520D4640720D590F83D30448DD3
:10117000002CF2D0446A24781461426A521C426204
:10118000428D521E4285428D002AE6D1292BE4D1A0
:101190000268536823F4806353602122026380F85D
:1011A0003D1000F02AF95BE76107D6D4D9438905E1
:1011B000D3D4418D0029D0D0416A097811610AE069
:1011C0006107CAD4D9438905C7D4418D0029C4D049
:1011D0001169426A1170416A491C4162418D491E80
:1011E00041853DE77047000070B5040025D094F8B4
:1011F0003D00002520B984F83C50204600F0BEF8A0
:10120000242084F83D002068016821F0010101607C
:101210002068016841F4004101602068016821F400
:101220000041016000F08EFA4D4A6168914201D898
:101230004C4900E04C49884201D2012070BD4B4925
:101240002368B0FBF1F15E6826F03F060E435E6056
:101250006368934206D94FF4967359434FF47A73F7
:10126000B1FBF3F12368491C1E6A26F03F063143A7
:1012700019626168914210D84900401EB0FBF1F23A
:10128000521CC2F30B02042A01D2042022E0B0FB5C
:10129000F1F0401CC0F30B001CE0A268F2B301EBBC
:1012A000C10303EB0116431EB3FBF6F35B1C43F4CF
:1012B00080431B0549D092B301EBC10202EB01113F
:1012C000401EB0FBF1F0401CC0F30B0040F4804026
:1012D00040F400402168CA694CF6FF739A431043FA
:1012E000C861D4E9071001432068026822F0C002F7
:1012F00011430160D4E9030101432068826848F288
:10130000FF339A4311438160D4E905010843216802
:10131000CA6822F0FF021043C86001E00EE016E048
:101320002068016841F0010101602564202084F8F3
:101330003D00256384F83E50002070BD01EB41065E
:10134000431EB3FBF6F35B1CB3E70120C2E701EBDE
:101350004101401EB0FBF1F0401CC0F30B00B7E7A9
:10136000A086010080841E0000093D0040420F005D
:1013700070477047704770477047000010B586B0DF
:101380000021009101910291039100681749884260
:101390002AD1174CA06940F00800A061A0696946F5
:1013A00000F008000490C02000901220019003205B
:1013B00003901048FFF7A4FCE06940F40010E061DE
:1013C000E069002200F40010049011461F2000F094
:1013D0007BF81F2000F06AF800221146202000F060
:1013E00073F8202000F062F806B010BD00540040F1
:1013F00000100240000C01407047704702488168AD
:10140000027811448160704710000020074810B531
:10141000016841F010010160032000F075F8002020
:1014200000F006F800F024F8002010BD0020024073
:1014300070B50D4D04464FF47A712878B1FBF0F089
:101440000A490968B1FBF0F000F052FB48B9102CD2
:1014500007D200222146501E00F036F800206C60B2
:1014600070BD012070BD0000100000201C00002095
:101470000C4808B5816941F001018161816901F081
:1014800001010091C16941F08051C161C06900F062
:10149000805000900448416821F0E06141F0007103
:1014A000416008BD0010024000000140002809DB37
:1014B00000F01F02012191404009800000F1E0206E
:1014C000C0F8001170470000F0B40E4B1B680C46CA
:1014D000C3F30223C3F10705042D00D90425191D08
:1014E000072901D2002300E0DB1E012606FA05F1E0
:1014F000491E214099409E40761E16403143F0BC63
:1015000002F04DB80CED00E0064900F00702086853
:101510004FF6FF03184040EA0220034A10430860D8
:10152000704700000CED00E00000FA052DE9F843DB
:1015300005460078354CC00754D0E0690026C0004D
:1015400008D4E06940F08050E061E069012600F0D5
:10155000805000902E480168C90512D40168804669
:1015600041F480710160FFF7BBFC074605E000BF56
:10157000FFF7B6FCC01B642823D8D8F80000C005CC
:10158000F6D5206A10F4407021D0A98801F440718A
:1015900081421CD0206A1F49012220F440700A6059
:1015A00000220A602062C00711D0FFF799FC0746AD
:1015B00041F2883808E000BFFFF792FCC11B4145AB
:1015C00002D90320BDE8F883206A8007F4D5206A99
:1015D000696820F44070084320621EB1E06920F081
:1015E0008050E0612878800705D56068A96820F4FC
:1015F0004040084360602878C00605D56068E96807
:1016000020F48000084360600020DBE70010024007
:1016100000700040400442422DE9F0470F460500AB
:1016200061D0434E306800F00700B84209D23068FC
:1016300020F0070038433060306800F00700B842FF
:1016400051D128683B4C810712D5400703D560680B
:1016500040F4E06060602878000703D5606840F4DB
:10166000605060606068A96820F0F0000843606026
:101670002878C00728D06868012810D0216802287F
:1016800010D0890700292EDA616821F00301014397
:101690006160FFF725FC804641F288390DE0216842
:1016A0008903EFE78901EDE7FFF71AFCA0EB0801DA
:1016B000494502D90320BDE8F0876068696800F0F9
:1016C0000C00B0EB810FEFD1306800F00700B8429A
:1016D0000BD9306820F0070038433060306800F0E4
:1016E0000700B84201D00120E5E72878400705D57A
:1016F0006068E96820F4E0600843606028780007CB
:1017000006D56068296920F4605040EAC100606035
:1017100000F038F86168084AC1F30311515CC84011
:101720000649086006480068FFF782FE0020C2E70D
:101730000020024000100240D43E00081C0000209F
:10174000140000200448054900684968044AC1F3B0
:101750000221515CC84070471C000020001002406C
:10176000E43E00080448054900684968044AC1F39A
:10177000C221515CC84070471C000020001002408C
:10178000E43E00080E4A51680E4801F00C03042B99
:1017900011D0082B0FD10C48C1F38343C903C05C9F
:1017A0000AD55168084AC1F34041921E515C054A6E
:1017B0005043B0FBF1F070470449484370470000C4
:1017C0000010024000127A00C43E000800093D00EB
:1017D0002DE9F84F040070D02078C04DC00749D0E3
:1017E0006868C0F38100012807D06868C0F38100F1
:1017F000022809D16868C00306D52868800339D556
:1018000060680028E7D035E06068B0F5803F0BD015
:1018100010B1B0F5A02F11D0286820F480302860D6
:10182000286820F4802002E0286840F48030286096
:10183000606890B1FFF754FB06460AE0286840F460
:1018400080202860F0E700BFFFF74AFB801B642878
:1018500073D828688003F7D50CE0FFF741FB0646F4
:1018600005E000BFFFF73CFB801B6428F0D8286828
:101870008003F7D420789A4E80074FF001094FF08B
:10188000000839D5686810F00C0F07D06868C0F3FD
:101890008100022809D16868C00306D4286880073F
:1018A00014D52069012808D110E02069B0B1C6F82C
:1018B0000090FFF715FB074605E00AE1FFF710FB74
:1018C000C01B0228C4D828688007F7D5286861693A
:1018D00020F0F80040EAC10028600DE0C6F8008062
:1018E000FFF7FEFA074604E0FFF7FAFAC01B0228EA
:1018F00023D828688007F7D4207800072CD57948AA
:10190000A169D9B1C0F80090FFF7EAFA074604E0F0
:10191000FFF7E6FAC01B02280FD8686A8007F7D5E0
:1019200071484FF4FA510068B0FBF1F0009000BF2D
:101930000098411E0091FAD20EE080E0C0F80080CD
:10194000FFF7CEFA074604E0FFF7CAFAC01B0228E9
:1019500075D8686A8007F7D42078400760D5E869B1
:101960000027C00008D4E86940F08050E861E869C9
:10197000012700F0805000905C480168C90513D42D
:101980000168834641F480710160FFF7A9FA82463D
:1019900006E000BFFFF7A4FAA0EB0A0064284ED8C7
:1019A000DBF80000C005F5D5E06801280AD008B1D1
:1019B000052813D0286A20F001002862286A20F048
:1019C000040002E0286A40F001002862E06841F269
:1019D000883B98B1FFF784FA82460BE0286A40F012
:1019E00004002862EEE700BFFFF77AFAA0EB0A01D5
:1019F00059455AD8286A8007F6D50CE0FFF770FAE7
:101A0000824605E0FFF76CFAA0EB0A0159454CD875
:101A1000286A8007F6D41FB1E86920F08050E86199
:101A2000E06988B36968C1F38101022944D00228C2
:101A3000C6F8608004D0FFF753FA044638E034E07B
:101A4000FFF74EFA074604E0FFF74AFAC01B0228E8
:101A50002BD828688001F7D4206AB0F5803F05D1E3
:101A60006868A16820F4003008436860D4E9080180
:101A70000843696821F4741108436860C6F86090EF
:101A8000FFF72EFA044606E025E000BFFFF728FA2C
:101A9000001B022809D828688001F7D51BE000BF89
:101AA000FFF71EFA001B022802D90320BDE8F88FB9
:101AB00028688001F4D40EE00128F7D06868226A13
:101AC00000F48031914204D1616A00F470108842C0
:101AD00001D00120EAE70020E8E700000010024002
:101AE00000004242800442421C000020007000407E
:101AF00010B5401EB0F1807F01D3012010BD4FF022
:101B0000E02460610F21601701F049FD0020A06111
:101B100007202061002010BD10B590F83C20012A5C
:101B200022D0012280F83C20CA688C6822F44072DE
:101B300022434C6822F4806222430C6822F4006243
:101B400022430C6922F4805222434C6922F4005251
:101B50002243C969002322F480420A4301684A648F
:101B600080F83C30002010BD022010BD70B590F808
:101B70003C20012A26D0012480F83C40022280F833
:101B80003D2003685A689D6822F070060A68324357
:101B90005A600D4B02689A4208D0B2F1804F05D0CE
:101BA0000A4B9A4202D00A4B9A4204D1496825F066
:101BB00080031943916080F83D40002180F83C107B
:101BC000084670BD022070BD002C0140000400409A
:101BD0000008004010B5040003D094F83D0010B197
:101BE00007E0012010BD002084F83C00204600F0F2
:101BF0001FF8022084F83D00211D206801F066FADC
:101C0000012084F8460084F83E0084F83F0084F800
:101C1000400084F8410084F8420084F8430084F8CE
:101C2000440084F8450084F83D00002010BD000009
:101C300008B500680649884208D10648816941F420
:101C400000618161806900F40060009008BD0000BF
:101C5000002C01400010024070B5044690F83C0092
:101C60000025012817D0012684F83C60022084F862
:101C70003D002068826822F0770222F47F42826071
:101C80000868502838D00DDC20284FD005DC90B3F0
:101C9000102811D14AE0022070BD302846D04028DB
:101CA0000AD13BE060282FD070280DD0B0F5805FBE
:101CB00003D0B0F5005F12D0012584F83D6000200C
:101CC00084F83C00284670BDCB68D1E9012120682A
:101CD00001F045FA2068816841F0770109E0CB689E
:101CE000D1E90121206801F03AFA2068816841F4C5
:101CF00080418160E1E719E0CA684968206801F025
:101D0000E3FA5021206806E0CA684968206801F0BB
:101D1000ECFA6021206801F02CFACEE7CA68496825
:101D2000206801F0D1FA40212068F4E722680146DA
:101D30001046F0E700B585B00021009101910291B5
:101D4000039100680B49884212D10B48816941F028
:101D5000040181618069694600F0040004904FF439
:101D6000807000900220019003900448FEF7C8FFA5
:101D700005B000BD002C01400010024000080140E9
:101D800070B5044690F83C0000260D4601280FD09F
:101D9000012084F83C006AB1042A1DD0082A2FD003
:101DA0000C2A3FD00126002084F83C00304670BD4C
:101DB000022070BD206801F0E5F92068816941F0DA
:101DC000080181612068816921F004018161206836
:101DD00081692A69114311E0206801F0FBF920684C
:101DE000816941F4006181612068816921F4806129
:101DF0008161206881692A6941EA02218161D2E713
:101E0000206801F013FA2068C16941F00801C1613E
:101E10002068C16921F00401C1612068C1692A6993
:101E2000114311E0206801F02DFA2068C16941F4E6
:101E30000061C1612068C16921F48061C1612068CD
:101E4000C1692A6941EA0221C161ACE710B5040009
:101E500003D094F83D0010B107E0012010BD002030
:101E600084F83C00204600F01EF8022084F83D0073
:101E7000211D206801F02AF9012084F8460084F829
:101E80003E0084F83F0084F8400084F8410084F864
:101E9000420084F8430084F8440084F8450084F844
:101EA0003D00002010BD704710B50446022249B124
:101EB00004290ED0082913D094F84100012816D027
:101EC000012010BD94F83E000128F9D184F83E208D
:101ED0000FE094F83F000128F2D184F83F2008E099
:101EE00094F840000128EBD184F8402001E084F808
:101EF00041200122206801F025F90F49206888421D
:101F000003D1426C42F4004242642068884208D007
:101F1000B0F1804F05D00949884202D00849884273
:101F200004D1816801F00701062903D0016841F05E
:101F300001010160002010BD002C014000040040A0
:101F4000000800407047704710F8411F4078084370
:101F500070470000F8B5016804460868CA684B6914
:101F600010F00F0F4FF0000559D003F0010602F4F6
:101F70009077374365D0C10705D0D10503D5616C93
:101F800041F001016164410705D5D90703D0616CB7
:101F900041F002016164810705D5D90703D0616C66
:101FA00041F004016164010707D502F020013143CB
:101FB00003D0616C41F008016164616C00293AD082
:101FC000800604D5900602D5204601F0CFF920689E
:101FD0004069616CC0F38010090700D460B32046EB
:101FE00001F09DF920684069400621D52068143031
:101FF00050E8001F21F0400140E80012002AF5D10E
:10200000E06BA8B16D494163E06BFEF707FD002866
:1020100011D0E06B416B01B0BDE8F040084783068A
:102020000FD593060DD52046BDE8F84001F09EB9C6
:102030002046FFF788FFF8BD2046FFF784FF656460
:10204000F8BD266B2023012E7CD1C6067AD5D60694
:1020500078D508684868009048694FF00206400645
:1020600040D5E16B086840680004000CE8D0A28D00
:102070008242E5D9E085886920282DD020680C307F
:1020800050E8001F21F4807140E80012002AF5D1C9
:102090002068143050E8001F21F0010140E80012D0
:1020A000002AF5D12068143050E8001F21F04001CB
:1020B00040E80012002AF5D184F8423025632068F8
:1020C0000C3050E8001F21F0100140E80012002AF7
:1020D000F5D1E06BFEF77FFC6663A08DE18D401AC1
:1020E00081B22AE0A08DE18D401A81B2E08D0028F6
:1020F000A6D00029A4D022680C3252E8000F20F4A8
:10210000907042E80007002FF5D12068143050E8A5
:10211000002F22F0010240E80027002FF5D184F8BB
:102120004230256320680C3050E8002F22F0100266
:1021300040E80023002BF5D166632046FFF702FF3D
:10214000F8BDFFE705062BD5150629D594F8410003
:102150002128F5D1A068B0F5805F01D12069B0B128
:10216000206A411C2162216800784860E08C401E92
:102170000004000CE084E3D12068C16821F08001F4
:10218000C1602068C16841F04001C160D8E7206AA1
:102190000088C0F308004860206A801C2062E5E7E0
:1021A0004006CDD55006CBD5CA68204622F0400265
:1021B000CA6084F8413000F029F9C1E70F33000804
:1021C00070B5040004D094F84100002510B106E079
:1021D000012070BD84F84050204600F023F82420F0
:1021E00084F841002068C16821F40051C160204694
:1021F00001F01EF92068016921F490410161206815
:10220000416921F02A0141612068C16841F400510F
:10221000C1606564202084F8410084F84200656351
:10222000002070BD30B585B0002400940194029464
:1022300003940068184988422CD11848C16941F4B8
:102240008021C161C16901F480210491816941F05B
:10225000080181618069124D00F0080004904FF47C
:102260008060009002200190032003906946284678
:10227000FEF746FDE814CDE90004694628460294BD
:10228000FEF73EFD002211462720FFF71DF927200B
:10229000FFF70CF905B030BD0048004000100240C7
:1022A000000C014090F84230202B01D002207047F2
:1022B00021B11AB10023036301F016B90120704760
:1022C0002DE9F0412249884240D1224E3178FF2940
:1022D00007D3002030704FF480711F48FDF786FF50
:1022E0002DE01E481C4B1B4A04781D4F5C5415788A
:1022F00038786D1C10BB1B4A1078A1EB000C13F84A
:102300000CC0BCF13C0F19D1401CC0B210703E2C67
:1023100001D00E2812D30024091ADFF84CC04FF068
:10232000010E07E0585C0CF80400641CE4B287F866
:1023300000E00020491CA942F4DB10703570BDE8B4
:10234000F041012205490248FFF7ACBFBDE8F0812A
:10235000500100203C000020A20200203F0000208D
:102360003E00002000000020980100202DE9F843E5
:10237000044690F84100984616460D46202802D0A3
:102380000220BDE8F88385B17EB100206064212081
:1023900084F84100FEF7A4FDA6848146E684A06887
:1023A0002027B0F5805F02D003E00120E9E7206933
:1023B00010B12E4600250EE000260CE080212046BC
:1023C00001F0ADF8A8B9C6B116F8010B2168486054
:1023D000E08C401EE084E08C4B464FF00002CDF8CC
:1023E00000800028EAD14FF04001204601F097F824
:1023F00040B184F841700320C3E735F8020BC0F305
:102400000800E3E784F841700020BAE77047FEE770
:102410000148FEF76DBD0000B40000200148FEF742
:10242000C9BD0000B400002038B5406A002190F812
:102430003D202B4B46F2A8141B68B3FBF4F3C3EB0F
:10244000C30303EB830300933BB15B1E009303685C
:102450001B689B0505D5009BF6E7036C43F0200342
:102460000364436B03B19962836B03B199620368A0
:102470001C6824F480641C604185436B03B159637C
:10248000836B03B1596303681C6824F001041C606A
:1024900090F83D402023602C0BD0282434EA02021F
:1024A0000FD080F83D3080F83E1000BFFEF79AFE56
:1024B00038BD80F83D3080F83E100164FEF716FD0F
:1024C00038BD0268136843F00103136002681368A3
:1024D00043F480631360016380F83D40E6E7000049
:1024E0001C00002000684169C943090601D400218D
:1024F0000161704770B5044690F83D0094F83E10B5
:10250000102901D0402906D1222804D121680A6867
:1025100022F400620A60282131EA00024FF000052F
:102520004FF0200626D021684968090505D46028A7
:1025300003D084F83D6084F83E50256320684168EC
:10254000090537D5416821F400614160606B90F85E
:1025500021203C49012A11D04163606BFEF75EFAED
:1025600038B32068016821F00101016084F83D6002
:10257000606B1CE0256384F83D10DFE7A06B4163CE
:10258000A06BFEF74BFAA0B120684169C943490628
:1025900005D40069616A0870606A401C6062206846
:1025A000016821F00101016084F83D60A06B416B7E
:1025B000884710E094F83D10602910D04169C94364
:1025C000490605D40069616A0870606A401C60624F
:1025D0002046FEF707FE206CC1071CD115E084F8E9
:1025E0003D6025644169C943490605D40069616AB3
:1025F0000870606A401C60622068016821F0010177
:1026000001602046FEF772FCE5E7810703D441072D
:1026100001D4000704D52068416821F4E0614160DD
:1026200094F83D00216C49070BD5282809D10648AC
:10263000E062256384F83D6084F83E502046FEF752
:1026400097FE70BD292400080000FFFF10B5C26A84
:10265000438D0168042B06D0438D032B08D0438D96
:10266000022B1DD012E04A6822F480624A600CE01E
:102670004B6823F480634B60042A06D0022A04D0FE
:1026800001680A6822F480620A6001680969426A86
:102690001170416A491C4162418D491E418510BD3E
:1026A000012A34D0102A32D0042A34D0022A32D05F
:1026B0000B6843F400730B6001680969436A197081
:1026C000416A491C4162438D5B1E438503681B6957
:1026D0000B70416A491C4162418D491E4185016868
:1026E0004B6823F440734B60202180F83D1090F834
:1026F0003E300021402B80F83E1010D0082A02D036
:10270000202A00D012210163FEF733FE10BD0B68B2
:1027100023F48063CFE70B6843F48063CBE7016366
:10272000FEF729FE10BD000038B590F83D102229B3
:1027300010D1C36A418D03290DD901680969426A24
:102740001170416A491C4162418D491E4185418D8C
:10275000032906D038BDC26A022A02D0012906D058
:1027600029B10068416821F48061416038BD2A4A7E
:1027700046F2A81400211268B2FBF4F202EB8202C6
:10278000009202682024009D6D1E009526D01568D9
:10279000AD05F8D4156825F48065156002685568A4
:1027A00025F4E065556002681269456A2A70426A3C
:1027B000521C4262428D521E428580F83D4090F884
:1027C0003E2080F83E10402A21D0082B02D0202B3A
:1027D00000D012210163FEF7CCFD38BD036C43F03D
:1027E00020030364536823F4E063536002681269B2
:1027F000436A1A70426A521C4262428D521E4285DE
:1028000080F83D4080F83E10FEF7ECFC38BD0163D7
:10281000FEF7B1FD38BD00001C00002010B5C26AF3
:1028200090F83D1021290BD1418D51B1416A0268C8
:1028300009781161416A491C4162418D491E4185F7
:1028400010BD20230021082A13D0202A11D012F510
:10285000803F0ED00268546824F4E0645460112272
:10286000026380F83E1080F83D3000BFFEF782FD25
:1028700010BD0268546824F4E0645460026814686F
:1028800044F400741460016380F83D3090F83E20F9
:1028900080F83E10402AE9D1FEF76EFD10BD000021
:1028A00010B590F83D1090F83E30C26A048DB4B176
:1028B000212903D0402B11D122290FD1418DE1B321
:1028C00090F83E10402942D0416A026809781161AF
:1028D000416A491C4162418D491E418510BD212933
:1028E000E8D120230021082A13D0202A11D012F584
:1028F000803F0ED00268546824F4E06454601122D2
:10290000026380F83E1080F83D3000BFFEF732FDD4
:1029100010BD0268546824F4E064546002681468CE
:1029200044F400741460016380F83D3090F83E2058
:1029300080F83E10402AE9D100E002E0FEF71CFDDD
:1029400010BD0068416821F48061416010BDBDE8A0
:10295000104000F0F3B8000078B590F83E50C26A1D
:10296000046B90F83D6000230168222E73D1066D40
:102970000EB9402D6FD0056D1DB90569B5F5404FF5
:102980001BD0458D95B3468D484D012E20D0448DEA
:10299000022C4DD00C6844F480640C6001684C68D3
:1029A000240579D5AA4273D0012A71D0082A6FD0A4
:1029B000102A6DD0202A6BD06EE04A698A69009295
:1029C0000A6842F480720A60016D491C016578BD95
:1029D000AA4214D10A6822F480620A6001684A6837
:1029E000120504D50A6822F4806217E0FFE74A69FD
:1029F0008A6900920A6842F400720A6050E0082A6C
:102A000010D0202A0ED0122C0AD0042A03D0022A79
:102A100001D0102AE6D10A6842F480620A603BE0E5
:102A2000012ADFD00A6822F480620A600168DEE7CA
:102A3000042A11D0022A0FD0102A0DD00C6844F4B9
:102A400000640C6001684C698C6900940C6824F483
:102A500080640C6008E025E00C6844F480640C603D
:102A600001684C698969009101684C68240517D593
:102A7000AA4207D0012A05D0082A03D0102A01D083
:102A8000202A0DD14A6842F480524A6008E0FFE7EC
:102A90004A6842F480524A6001684A698969009133
:102AA000036578BD48698869009078BD0000FFFF24
:102AB00090F83E10402910D00169B1F5804F19D02F
:102AC000016DA9B3016D012910D1416C5FF0F102D4
:102AD00001F4407142EAD11106E0016D0029416C18
:102AE00005D0C9B241F0010100680161704701F0F1
:102AF000FE01F9E790F83D102129416C09D0C9B2D7
:102B000041F0010102681161416B29B1896A49B93B
:102B100002E001F0FE01F5E7816B0029E6D0896A49
:102B20000029E3D00068416841F4006141607047CA
:102B3000FFE7416CF02201F44071CBE710B590F84B
:102B40003D10026D4AB1026D012A14D0026D022AB5
:102B500016D0BDE81040FFF7C5BCC16C0129816CDF
:102B600002D0C1F3072108E00268C9B21161016D0A
:102B7000891C016510BD816CC9B20268116123E036
:102B800022291CD0428D0AB1212920D0428D002A51
:102B9000F0D12129EED101684A6822F4E0624A604E
:102BA00001680A6842F400720A6000210163202271
:102BB00080F83D2080F83E10FEF7DEFB10BD016876
:102BC0000A6842F480720A60016D491CD1E7416ACB
:102BD000026809781161416A491C4162418D491EB0
:102BE000418510BD38B50C4690F83D2000212825C0
:102BF000954302680B4605D051699169009180F8B0
:102C00003C3038BD556825F480655560E243540773
:102C100000D50121120601D5828900E0028B80F8DF
:102C20003C3092B2FEF763F938BD00002DE9F04167
:102C300090F83D300446C26A002120261E4F0068ED
:102C40006FF48065082A01D0202A01D1282B04D0F6
:102C5000212B17D04561BDE8F081E762426822F47C
:102C6000E0624260206845612068026822F4806268
:102C70000260216384F83D6084F83E102046FEF730
:102C800077FBE8E7E7622122226384F83D6084F85D
:102C90003E10416821F4E061416020684561206890
:102CA000016821F4806101602046FFF71BFC20468B
:102CB000FEF7A3FBCFE700000000FFFFF8B590F898
:102CC0003D6004460068416821F4E061416020688D
:102CD000002541690091016841F00101016020680F
:102CE000016821F48061016020684168090520D5F0
:102CF000474F222E48D02A2E46D0616B096849687A
:102D00006185618D19B1216C41F004012164416834
:102D100021F400614160606BFDF7CCFE012808D012
:102D2000606B4763606BFDF779FE10B1606B416BC0
:102D30008847608D08B320684169C943490708D4B2
:102D40000069616A0870606A401C6062608D401EA4
:102D5000608520684169C943490608D40069616AF1
:102D60000870606A401C6062608D401E6085608DE6
:102D700018B1206C40F004002064206C00B32046A1
:102D8000BDE8F840FFF7B6BBA16B096849686185EB
:102D9000618D19B1216C41F004012164416821F475
:102DA00000614160A06BFDF785FE0128C1D0A06BDA
:102DB0004763A06BFDF732FE0028BAD0A06BB6E7E0
:102DC0002A2E06D12563282084F83D002046FEF7F0
:102DD00013FB94F83D10202028290DD0216B2229C7
:102DE00001D0222E07D1256384F83D0084F83E509F
:102DF0002046FEF701FBF8BD0649E162256384F831
:102E00003D0084F83E502046FEF7B2FAF8BD0000BF
:102E1000292400080000FFFF3EB50021174800915B
:102E20000191154A02910260921582600125057395
:102E3000017502244FF460220461C2614160FDF714
:102E40003BFC08B1FDF71EFB05200094CDE90150C5
:102E500069460A48FDF71AFB08B1FDF713FB062087
:102E6000CDE9000469460548FDF710FB002801D0B4
:102E7000FDF708FB3EBD000000240140400000209B
:102E8000094808B5416941F00101416140690022EA
:102E900000F00100009001210B20FEF715FBBDE8BA
:102EA00008400B20FEF702BB0010024000B585B0C1
:102EB00000200190029003901048816941F02001A8
:102EC0008161816901F020010491816941F004016F
:102ED0008161816901F004010491816941F0080177
:102EE00081618069694600F00800049080200090AC
:102EF0000348FDF705FF05B000BD000000100240CB
:102F0000000801400D4810B50B4901600C494160B3
:102F100000214FF480428160C0E903124161816168
:102F2000C1610162FEF760F9002803D0BDE81040DE
:102F3000FDF7A8BA10BD000000540040B400002006
:102F4000A086010010B596B000240F94109411943F
:102F5000129413941C2108A81494FDF769F92021F8
:102F60006846FDF765F928482649C0E9001440F68F
:102F70003F31C0E9024180210461C0E90541FEF70B
:102F800029FE08B1FDF77EFA4FF480500F900FA98B
:102F90001D48FEF761FE08B1FDF774FA1A48FEF706
:102FA00055FF08B1FDF76EFA139413A9164814944F
:102FB000FEF7DCFD08B1FDF765FA6020CDE90804F5
:102FC0000A940B940C940D94002208A90E480E94B8
:102FD000FEF7D6FE08B1FDF755FA00944FF4005005
:102FE000CDE904400294019403946946064807948D
:102FF000FEF792FD08B1FDF745FA0348FEF79AFE89
:1030000016B010BD002C0140080100200C4810B57E
:103010000A4901604FF4E1314160002181600C22D6
:10302000C160C0E904128161C161FFF7C9F80028DD
:1030300003D0BDE81040FDF725BA10BD00480040A0
:1030400050010020FEE7FEE770477047FEF7D6B953
:1030500030B593B028216846FDF7EAF814210AA894
:10306000FDF7E6F8002501200F9510951195010454
:1030700012958DE8230004904FF4E010CDE908107C
:10308000022407946846FEF7A3FB08B172B6FEE778
:103090000AA90F2081E831004FF48060CDE90D05C9
:1030A00002210AA8FEF7B8FA08B172B6FEE74FF49B
:1030B000004011900F940FA8FEF738FA002801D0B5
:1030C00072B6FEE713B030BD70470000F0B502687D
:1030D000194B1A4C1A4D4FF08047984205D0B84210
:1030E00003D0A04201D0A84203D122F070064A6862
:1030F0003243984205D0B84203D0A04201D0A84242
:1031000003D122F44074CA6822434C6922F0800241
:10311000224302608A68C2620A688262984201D1D0
:1031200009690163012141610169C90703D001698E
:1031300021F001010161F0BD002C014000040040BC
:103140000008004010B501F01F030121046A9940F6
:103150008C430462016A9A401143016210BD10B5AC
:10316000846842EA032224F47F440A4322438260B3
:1031700010BD826822F070020A4342F007018160AC
:103180007047000030B5036A026A22F00102026251
:103190004268846924F073050C682C4323F002050F
:1031A0008B682B430A4DA8420BD123F00805CB684E
:1031B00022F440722B434D6923F0040315438A69BE
:1031C0002A434260846149684163036230BD000064
:1031D000002C014030B5026A036A23F01003036239
:1031E000436884690D6824F4E64444EA05248D6844
:1031F00022F0200242EA05120B4DA8420ED1CD6802
:1032000022F0800242EA05124D6923F4406343EA4A
:1032100085038D6922F0400243EA8503436084619F
:1032200049688163026230BD002C014030B5036AF9
:10323000026A22F4807202624268C46923F4007355
:1032400024F073050C682C438D6843EA05230C4D6C
:10325000A8420ED1CD6823F4006343EA05234D69EB
:1032600022F4405242EA05128D6923F4806342EA57
:1032700005124260C4614968C163036230BD000049
:10328000002C014030B5046A026A22F480520262C6
:103290004268C3690D6823F4E64343EA05238D6859
:1032A00024F4005444EA0534064DA84204D14D6983
:1032B00022F4804242EA85124260C3614968016497
:1032C000046230BD002C014010B5036A046A24F08A
:1032D00001040462846924F0F00444EA021423F037
:1032E0000A020A438461026210BD10B5036A046ACF
:1032F00024F010040462846923F0A00324F47044D1
:1033000044EA023243EA01118261016210BD10B544
:10331000406A0021C185C184FEF715FE10BD016819
:103320000C3151E8002F22F4907241E80023002B69
:10333000F5D10168143151E8002F22F0010241E873
:103340000023002BF5D1016B012909D101680C3153
:1033500051E8002F22F0100241E80023002BF5D1A4
:10336000202180F8421000210163704708B590F8D1
:103370004210222901D0022008BD82684FF48053F8
:103380009A4201D1016921B1816A9A421BD04AB1A6
:103390000AE00268816A5268C2F308020A80816A00
:1033A000891C08E0026972B10268526802F07F026B
:1033B0000A70816A491C8162C18D491E0904090C89
:1033C000C18503D01BE002685268F1E70168CA6852
:1033D00022F02002CA600168CA6822F48072CA60C2
:1033E00001684A6922F001024A61202180F84210F6
:1033F00000214163026B012A03D0FEF761FF002028
:1034000008BD016301680C3151E8002F22F0100261
:1034100041E80023002BF5D101680A68D20602D5E5
:103420000A6849680091818DFEF78CFDE7E700008E
:1034300070B5044600680169E26821F44051114307
:1034400001612169A0680843616908432168CA686D
:1034500041F20C639A430243CA6020684169A26941
:1034600021F44071114341611E492068884202D114
:10347000FEF778F901E0FEF765F900EBC00101EB1A
:103480000012606864218000B2FBF0F3B3FBF1F33B
:103490006FF018067343B2FBF0F5B2FBF0F605EBE4
:1034A0008305322303EB0515B5FBF1F5B6FBF1F609
:1034B00005F0F00505EB0615B2FBF0F6B2FBF0F0F7
:1034C000B0FBF1F06FF01802504306EB800003EB05
:1034D0000010B0FBF1F0216800F00F002844886074
:1034E00070BD00000038014081628285C2850021E4
:1034F0004164222180F84210016921B10168CA6843
:1035000042F48072CA6001684A6942F001024A616D
:103510000068C16841F02001C160002070472DE9BA
:10352000F843984617460D460446089E24E0701C52
:1035300022D0FDF7D5FCA0EB0800B0421AD8CEB1DE
:103540002068C168490717D5802D15D0402D13D0AC
:103550000168C94309070FD401680025406800903D
:103560002046FFF7DCFE0820606484F8405001200C
:10357000BDE8F8830320FBE72068006835EA000017
:1035800004D00020B842D2D00020F1E70120F9E7B2
:103590000148FEF7DFBC000050010020FEE70907EC
:1035A000090E002804DB00F1E02080F800147047C9
:1035B00000F00F0000F1E02080F8141D70470000BB
:1035C00010B500F0C3FA054900F008FB044900F00B
:1035D000DBF9BDE81040034900F000BB713D5A40E3
:1035E00000F07F450000C04070B514460D4600F065
:1035F000EDF8A5B17CB912E00A20FDF76FFB294672
:103600000848FCF7E1FD30B14FF480710548FCF744
:10361000EDFD012070BD641E2404240CECD10020BB
:1036200070BD0000A201002010B532220EA10FA033
:10363000FFF7DAFF142210A111A0FFF7D5FF40F623
:10364000B830FDF74BFBC82207A10FA0FFF7CCFF56
:10365000142205A115A0FFF7C7FFBDE81040C8223E
:1036600001A115A0FFF7C0BF4F4B000041542B43F1
:10367000574D4F44453D320072656164790000004A
:1036800041542B525354000041542B435753415043
:103690003D2265737038323636222C223132333473
:1036A0003536373839222C312C34000041542B4325
:1036B00049504D55583D310041542B4349505345D5
:1036C000525645523D312C383038300070B5124CCE
:1036D000D4E9050100F0EAF8104900260D466061C2
:1036E00000F048FB01D8656105E03146606900F0F3
:1036F00041FA04D86661A06980F00040A061606969
:1037000000F004FA064980B209684863BDE87040D9
:103710001820FDF7E3BA0000200000200000B444A8
:1037200008010020FDF772FEFFF792FCFFF7BEFBD9
:10373000FFF7A6FBFFF706FCFFF76EFBFFF766FC43
:10374000FFF7E0FB00210D48FEF7AEFB02220C491B
:103750000C48FDF78FF801220B490C48FEF7A2FD3B
:103760004FF47A70FDF7BAFAFFF75EFF0120FDF71C
:10377000B5FA00F053F800F00BF8F7E70801002065
:103780000C000020400000203F00002050010020DD
:10379000012805D0022805D0032805D100F00EB875
:1037A000FFF794BF00F002B8704700000249002004
:1037B00009684863704700000801002002494FF47F
:1037C000B4600968486370470801002030B58DB0C7
:1037D0000546002434216846FCF72AFD694603E0CB
:1037E0000855641CE4B26D1C28780028F8D10D201F
:1037F0000855641CE0B20A220A54401CC2B24FF6BB
:10380000FF730548FEF7B2FD0348FEF79DFB212834
:10381000FAD00DB030BD0000500100202DE9F0417C
:103820001C4CA07890B30025A5701BA11B48FCF789
:10383000CBFC1A4E4FF4807750B12570394606F50F
:103840008570FCF7D3FC35607560358101201CE084
:1038500013A11248FCF7B8FC48B12570394611484D
:10386000FCF7C4FC35607560358102200DE00EA1C7
:103870000A48FCF7A9FC48B1257039460948FCF70D
:10388000B5FC356075603581032060706078BDE8F7
:10389000F08100003C000020310000009801002071
:1038A00032000000A20200203300000090EA010F65
:1038B00048BF81F0004100F19682421A3CBF801A55
:1038C00089184FEAD0524FF07F4C1CEA410FA2EB0F
:1038D000D15318BF9CEA026F00F03B804FF0004CC0
:1038E0004CEA00204CEA012121FA03FC10EB0C0CFD
:1038F0001ED202F1FF325FEA1C2040EBC25038BFFB
:1039000070471CF07F0F4FEA400C18BFBCF17F4F8F
:1039100038BF7047C3F12003994008BF20F0010071
:10392000BCF17F4F38BF7047A0F1C04000F01DBA16
:103930004FEA3C00000A40EBC25028BF1CF0FF0FCA
:103940004FEA400CE6D018BFBCF17F4F38BF70473C
:10395000EAE79CEA026F05D010EA5C0F08BF00F0AE
:103960000040704710B500F0BAF900BF64FBBE3EDE
:10397000401058BFC0F14040491058BFC1F140410C
:103980008142EFF3008070474FF47F0C1CEAD012A5
:103990001EBF1CEAD11392EA0C0F93EA0C0F00F041
:1039A000858090EA010F48BF42F4807240F4000C19
:1039B00041F400002CF07F4120F07F4000B58142AF
:1039C000A2EB03020FF2081CACEB504EC0F100005A
:1039D0009EF800E04FEA4E0E00FB0EFC38BF490097
:1039E0004FEA2C1C02F5FA020CFB0EF34FEACE1E36
:1039F0004FEA112C4FEAC1210EEB635E42EB2242EB
:103A00000EFB0CFC4FEA1C5300FB03114FEA112C78
:103A10004FEA01310EFB0CFC4FEADC4C00FB0C11B1
:103A2000C14228BF09184CEB03335DF804EB10EBDF
:103A3000410143EBC250B2F57C0F38BF704729D526
:103A400012F0F00F1CBF00F1C04000F000407047C2
:103A5000008182838485868788898B8C8D8E8F9167
:103A60009293959697999A9C9D9FA0A2A3A5A7A88B
:103A7000AAACAEB0B2B3B5B7B9BCBEC0C2C5C7C9B7
:103A8000CCCED1D4D7D9DCDFE2E6E9ECF0F3F7FA1B
:103A9000FE0000004FEA400C0CF1807CBCF17E4F30
:103AA00028BF7047B0F1C04000F05FB990EA010F45
:103AB0000CEAD11348BF42F48072624538BF6345B7
:103AC00007D213F47F0F16D080EA010000F0004007
:103AD000704710B500F003F9097EFC3E00F005B810
:103AE00080EA010000F00040704780EA010000F029
:103AF000004000F03AB912F47F0F04BF024870474B
:103B000080EA010000F031B90000C07FC10DD1F1A1
:103B10009E0206DB4FEA002343F0004323FA02F043
:103B20007047004207D54FEA4001B1F1FE4F02D283
:103B30004FF00000704710B500F0D1F84992248092
:103B4000002070476FEA200070470000B0FA80F351
:103B500010FA03F2C3F19D030AD0D90501EB12203C
:103B6000530638BF704700F1010008BF20F0010084
:103B70007047000050EA010C00F113801CF5000FA3
:103B800058BFBCF5000F01D48842704707D710F525
:103B9000000F58BF11F5000F15D4884270478942B5
:103BA00070471CF5000F04D5BCF5000FF7D5814216
:103BB00070474FF0807C1CEB400F38BF1CEB410F6F
:103BC00001D28142704710B500F089F89224490073
:103BD0004FF000504FF08051FFF7CABE4FF47F0CFA
:103BE0001CEAD0121EBF1CEAD11392EA0C0F93EA12
:103BF0000C0F00F0478090EA010F48BF42F480723A
:103C00004FF0004C4CEA00204CEA012102EB030289
:103C1000A0FB0113A2F50002002918BF43F0010325
:103C20005B0028BF4FEA330342EB22425FEA132CCA
:103C30004CEBC2502EBFBCEB436FB2F57C0F70470C
:103C40004FEA036CBCF1004F08BF20F00100B2F551
:103C50007C0F38BF70470BD582F0FF0212F5803F12
:103C6000C8BF704700F1C040D8BF00F000407047A7
:103C700000F5000C5FEA4C0C48BF7047B0F1C04043
:103C800000F073B890EA010F0CEAD11348BF42F478
:103C90008072624538BF634504D280EA010000F0BB
:103CA0000040704710B500F01AF800BF8900013ECF
:103CB00000F007B800F009B85FEA410C5FEA1C6C3D
:103CC00008D080EA010000F050B85FEA400C5FEADB
:103CD0001C6CF6D14FF00040A0F5800070470EF14B
:103CE000020E2EF0030E5EF8044B244204D44FEA79
:103CF0004102B2F17F4F11D84FEA4003B3F17F4F39
:103D00000CD80ED14FEAD07CB2F17F4F0CEB4C0CAB
:103D10000CF1020C08BF4CEBD17C04E04FF0080C16
:103D200001E04FEAD17C0CEB4C0324FA03F404F0DD
:103D30000704B4F1040C06D20EEB840CBDE810406D
:103D40004CF0010C6047DFE80CF0070802024FF06E
:103D50000040A0F5800010BD0846420018BFD2F117
:103D6000807288BF00F0004010BDFF2141EAD050B2
:103D7000C005704751EA000C00F113801CF5000FDC
:103D800058BFBCF5000F01D48142704707D711F529
:103D9000000F58BF10F5000F15D4814270478942BB
:103DA00070471CF5000F04D5BCF5000FF7D588420D
:103DB00070474FF0807C1CEB410F38BF1CEB400F6D
:103DC00001D28842704780EA010081EA000180EA5E
:103DD0000100FFF7F8BE000090EA010F48BF81F034
:103DE00000413FF56AAD421A04D882F00042A0EBD0
:103DF000020011444FEAD0524FF07F4C1CEA410FB1
:103E0000A2EBD15318BF9CEA026F4AD04FF0004C8E
:103E10004CEA00204CEA012121FA03FCB0EB0C0C27
:103E20000FD412F0FE0F36D05FEA4C001DD5001201
:103E300040EBC25038BF70471CF03F0F18BF7047AF
:103E40000BE0A2F101025FEA1C2040EBC25038BF38
:103E500070471CF07F0F18BF7047C3F120039940D3
:103E600014BF401E20F00100704780084FEA122363
:103E700008BF7047B0FA80FCA2EB0C02CCF1280C12
:103E800060FA0CF093EA122F04BF00EBC2507047A7
:103E90004FEAC3707047130A5FEADC1008BF70472F
:103EA000F6E79CEA026F04D010EA5C0F08BF00201E
:103EB000704710B5FFF713FF40DFF63E81F000407A
:103EC0007047010202030405060708090A0B0C0DDE
:103ED0000E0F10100000000000000000010203049B
:103EE0000607080900000000010203040C3F000857
:103EF0000000002040000000280100084C3F00089E
:103F000040000020C8090000440100080000000033
:103F100000000000000000000000000001000000A0
:103F2000100000000000000000127A000000DC42D7
:103F30009A99C94100000000000000000000904272
:0C3F4000000000000000904200000000A3
:04000005080000ED02
:00000001FF
